:10000000FC017183608342830895DC01ED91FC91D2
:100010001197408121E030E0C90112960C9002C096
:10002000880F991F0A94E2F7842B80830895DC01DE
:10003000ED91FC91119712963C91208181E090E026
:1000400001C0880F3A95EAF7662311F0822B02C0AF
:100050008095822380830895CF93DF9300D01F92F1
:10006000CDB7DEB745E065E270E0CE0101960E94B3
:100070000000CE0101960E94050061E0CE010196CC
:100080000E9417002FEF89E698E1215080409040B0
:10009000E1F700C0000060E0CE0101960E94170069
:1000A0002FEF89E698E1215080409040E1F700C0B1
:0400B0000000E3CF9A
:00000001FF
